{
  "contractName": "Ballot",
  "abi": [
    {
      "constant": true,
      "inputs": [
        {
          "name": "",
          "type": "uint256"
        }
      ],
      "name": "proposals",
      "outputs": [
        {
          "name": "name",
          "type": "bytes32"
        },
        {
          "name": "voteCount",
          "type": "uint256"
        }
      ],
      "payable": false,
      "stateMutability": "view",
      "type": "function"
    },
    {
      "constant": true,
      "inputs": [],
      "name": "chairperson",
      "outputs": [
        {
          "name": "",
          "type": "address"
        }
      ],
      "payable": false,
      "stateMutability": "view",
      "type": "function"
    },
    {
      "constant": true,
      "inputs": [
        {
          "name": "",
          "type": "address"
        }
      ],
      "name": "voters",
      "outputs": [
        {
          "name": "vote",
          "type": "uint256"
        },
        {
          "name": "delegate",
          "type": "address"
        },
        {
          "name": "weight",
          "type": "uint256"
        },
        {
          "name": "voted",
          "type": "bool"
        }
      ],
      "payable": false,
      "stateMutability": "view",
      "type": "function"
    },
    {
      "constant": false,
      "inputs": [
        {
          "name": "voter",
          "type": "address"
        }
      ],
      "name": "giveRightToVote",
      "outputs": [],
      "payable": false,
      "stateMutability": "nonpayable",
      "type": "function"
    },
    {
      "constant": false,
      "inputs": [
        {
          "name": "proposal",
          "type": "uint256"
        }
      ],
      "name": "vote",
      "outputs": [],
      "payable": false,
      "stateMutability": "nonpayable",
      "type": "function"
    },
    {
      "constant": true,
      "inputs": [],
      "name": "winningProposal",
      "outputs": [
        {
          "name": "_winningProposal",
          "type": "uint256"
        }
      ],
      "payable": false,
      "stateMutability": "view",
      "type": "function"
    },
    {
      "constant": true,
      "inputs": [],
      "name": "winnerName",
      "outputs": [
        {
          "name": "_winnerName",
          "type": "bytes32"
        }
      ],
      "payable": false,
      "stateMutability": "view",
      "type": "function"
    }
  ],
  "bytecode": "0x608060405234801561001057600080fd5b50610876806100206000396000f3fe60806040526004361061007d576000357c0100000000000000000000000000000000000000000000000000000000900480630121b93f14610082578063013cf08b146100bd5780632e4176cf14610113578063609ff1bd1461016a5780639e7b8d6114610195578063a3ec138d146101e6578063e2ba53f014610290575b600080fd5b34801561008e57600080fd5b506100bb600480360360208110156100a557600080fd5b81019080803590602001909291905050506102bb565b005b3480156100c957600080fd5b506100f6600480360360208110156100e057600080fd5b810190808035906020019092919050505061045e565b604051808381526020018281526020019250505060405180910390f35b34801561011f57600080fd5b50610128610491565b604051808273ffffffffffffffffffffffffffffffffffffffff1673ffffffffffffffffffffffffffffffffffffffff16815260200191505060405180910390f35b34801561017657600080fd5b5061017f6104b6565b6040518082815260200191505060405180910390f35b3480156101a157600080fd5b506101e4600480360360208110156101b857600080fd5b81019080803573ffffffffffffffffffffffffffffffffffffffff169060200190929190505050610531565b005b3480156101f257600080fd5b506102356004803603602081101561020957600080fd5b81019080803573ffffffffffffffffffffffffffffffffffffffff1690602001909291905050506107be565b604051808581526020018473ffffffffffffffffffffffffffffffffffffffff1673ffffffffffffffffffffffffffffffffffffffff1681526020018381526020018215151515815260200194505050505060405180910390f35b34801561029c57600080fd5b506102a561081b565b6040518082815260200191505060405180910390f35b6000600160003373ffffffffffffffffffffffffffffffffffffffff1673ffffffffffffffffffffffffffffffffffffffff16815260200190815260200160002090508060030160009054906101000a900460ff16151515610385576040517f08c379a000000000000000000000000000000000000000000000000000000000815260040180806020018281038252600d8152602001807f416c726561647920766f7465640000000000000000000000000000000000000081525060200191505060405180910390fd5b6000816002015414151515610402576040517f08c379a00000000000000000000000000000000000000000000000000000000081526004018080602001828103825260108152602001807f4e6f20726967687420746f20566f74650000000000000000000000000000000081525060200191505060405180910390fd5b60018160030160006101000a81548160ff021916908315150217905550818160000181905550806002015460028381548110151561043c57fe5b9060005260206000209060020201600101600082825401925050819055505050565b60028181548110151561046d57fe5b90600052602060002090600202016000915090508060000154908060010154905082565b6000809054906101000a900473ffffffffffffffffffffffffffffffffffffffff1681565b6000806000905060008090505b60028054905081101561052c57816002828154811015156104e057fe5b906000526020600020906002020160010154111561051f5760028181548110151561050757fe5b90600052602060002090600202016001015491508092505b80806001019150506104c3565b505090565b6000809054906101000a900473ffffffffffffffffffffffffffffffffffffffff1673ffffffffffffffffffffffffffffffffffffffff163373ffffffffffffffffffffffffffffffffffffffff161415156105f5576040517f08c379a000000000000000000000000000000000000000000000000000000000815260040180806020018281038252601f8152602001807f4f6e6c79204368616972706572736f6e2063616e20676976652072696768740081525060200191505060405180910390fd5b600160008273ffffffffffffffffffffffffffffffffffffffff1673ffffffffffffffffffffffffffffffffffffffff16815260200190815260200160002060030160009054906101000a900460ff161515156106ba576040517f08c379a000000000000000000000000000000000000000000000000000000000815260040180806020018281038252600d8152602001807f416c726561647920566f7465640000000000000000000000000000000000000081525060200191505060405180910390fd5b6000600160008373ffffffffffffffffffffffffffffffffffffffff1673ffffffffffffffffffffffffffffffffffffffff16815260200190815260200160002060020154141515610774576040517f08c379a00000000000000000000000000000000000000000000000000000000081526004018080602001828103825260118152602001807f4e6f2041636365737320746f20566f746500000000000000000000000000000081525060200191505060405180910390fd5b60018060008373ffffffffffffffffffffffffffffffffffffffff1673ffffffffffffffffffffffffffffffffffffffff1681526020019081526020016000206002018190555050565b60016020528060005260406000206000915090508060000154908060010160009054906101000a900473ffffffffffffffffffffffffffffffffffffffff16908060020154908060030160009054906101000a900460ff16905084565b600060026108276104b6565b81548110151561083357fe5b90600052602060002090600202016000015490509056fea165627a7a72305820c4bb8de42a5aea372783833148a09269b3d459b46ba4fff647737cdbced27fa20029",
  "source": "// SPDX-License-Identifier: GPL-3.0\npragma solidity >=0.4.22 <0.9.0;\n\ncontract Ballot{\n\n    address public chairperson;\n\n    struct Voter{\n        uint vote;\n        address delegate;\n        uint weight;\n        bool voted;\n    }\n\n    struct Proposal{\n        bytes32 name;\n        uint voteCount;\n\n    }\n\n    mapping (address => Voter) public voters;\n\n    Proposal[] public proposals;\n\n\n\n    // constructor (){\n    //     chairperson = msg.sender;\n\n    //     voters[chairperson].weight = 1;\n\n    //     proposals.push(Proposal({name: \"Test\", voteCount: 0}));\n    // }\n\n    function giveRightToVote(address voter) external {\n        require(msg.sender == chairperson, \"Only Chairperson can give right\");\n\n        require(!voters[voter].voted, \"Already Voted\");\n\n        require(voters[voter].weight == 0 ,\"No Access to Vote\");\n\n        voters[voter].weight = 1;\n    }\n\n\n    // function delegate(address to) external {\n    //     Voter storage sender = voters[msg.sender];\n\n    //     require(sender.weight != 0, \"You have no right to vote.\");\n\n    //     require(!sender.voted,\"Already voted\");\n\n    //     require(to != msg.sender, \"Self delagate is not allowed\");\n\n    //     while (voters[to].delegate != address(0)) {\n    //         to = voters[to].delegate;\n            \n    //         require(to != msg.sender, \"Found loop in delegation.\");\n    //     }\n\n    //     Voter storage delegate_ = voters[to];\n\n    //     require(delegate_.weight >= 1);\n\n    //     sender.voted = true;\n    //     sender.delegate = to;\n\n    //     if (delegate_.voted) {\n    //         proposals[delegate_.vote].voteCount += sender.weight;\n        \n    //     } else {\n    //         delegate_.weight += sender.weight;\n    //     }\n\n    // }\n\n\n    function vote(uint proposal) external {\n        Voter storage sender = voters[msg.sender];\n\n        require(!sender.voted,\"Already voted\");\n\n        require(sender.weight != 0, \"No right to Vote\");\n\n        sender.voted = true;\n\n        sender.vote = proposal;\n\n        proposals[proposal].voteCount += sender.weight;\n    }\n\n\n    function winningProposal() public view returns(uint _winningProposal){\n        uint winningVoteCount = 0;\n\n        for(uint i = 0; i < proposals.length; i++){\n            if(proposals[i].voteCount > winningVoteCount){\n                winningVoteCount = proposals[i].voteCount;\n                _winningProposal = i;\n            }\n        }\n    }\n\n\n    function winnerName() public view returns(bytes32 _winnerName){\n        _winnerName = proposals[winningProposal()].name;\n        \n    }\n\n    \n}",
  "sourcePath": "/home/brainx/Desktop/Projects/Blockchain/voting/contracts/Ballot.sol",
  "compiler": {
    "name": "solc",
    "version": "0.5.1+commit.c8a2cb62.Emscripten.clang"
  },
  "schemaVersion": "3.4.16",
  "updatedAt": "2024-08-04T20:21:14.977Z",
  "networkType": "ethereum",
  "devdoc": {
    "methods": {}
  },
  "userdoc": {
    "methods": {}
  }
}