{
  "contractName": "Vote",
  "abi": [
    {
      "inputs": [],
      "payable": false,
      "stateMutability": "nonpayable",
      "type": "constructor"
    },
    {
      "constant": true,
      "inputs": [],
      "name": "winner",
      "outputs": [
        {
          "internalType": "address",
          "name": "",
          "type": "address"
        }
      ],
      "payable": false,
      "stateMutability": "view",
      "type": "function"
    },
    {
      "constant": false,
      "inputs": [
        {
          "internalType": "string",
          "name": "_name",
          "type": "string"
        },
        {
          "internalType": "string",
          "name": "_party",
          "type": "string"
        },
        {
          "internalType": "uint256",
          "name": "_age",
          "type": "uint256"
        },
        {
          "internalType": "enum Vote.Gender",
          "name": "_gender",
          "type": "uint8"
        }
      ],
      "name": "registerCandidate",
      "outputs": [],
      "payable": false,
      "stateMutability": "nonpayable",
      "type": "function"
    },
    {
      "constant": true,
      "inputs": [],
      "name": "getCandidateList",
      "outputs": [
        {
          "components": [
            {
              "internalType": "string",
              "name": "name",
              "type": "string"
            },
            {
              "internalType": "string",
              "name": "party",
              "type": "string"
            },
            {
              "internalType": "uint256",
              "name": "age",
              "type": "uint256"
            },
            {
              "internalType": "enum Vote.Gender",
              "name": "gender",
              "type": "uint8"
            },
            {
              "internalType": "uint256",
              "name": "candidateId",
              "type": "uint256"
            },
            {
              "internalType": "address",
              "name": "candidateAddress",
              "type": "address"
            },
            {
              "internalType": "uint256",
              "name": "votes",
              "type": "uint256"
            }
          ],
          "internalType": "struct Vote.Candidate[]",
          "name": "",
          "type": "tuple[]"
        }
      ],
      "payable": false,
      "stateMutability": "view",
      "type": "function"
    },
    {
      "constant": false,
      "inputs": [
        {
          "internalType": "string",
          "name": "_name",
          "type": "string"
        },
        {
          "internalType": "uint256",
          "name": "_age",
          "type": "uint256"
        },
        {
          "internalType": "enum Vote.Gender",
          "name": "_gender",
          "type": "uint8"
        }
      ],
      "name": "registerVoter",
      "outputs": [],
      "payable": false,
      "stateMutability": "nonpayable",
      "type": "function"
    },
    {
      "constant": true,
      "inputs": [],
      "name": "getVoterList",
      "outputs": [
        {
          "components": [
            {
              "internalType": "string",
              "name": "name",
              "type": "string"
            },
            {
              "internalType": "uint256",
              "name": "age",
              "type": "uint256"
            },
            {
              "internalType": "uint256",
              "name": "voterId",
              "type": "uint256"
            },
            {
              "internalType": "enum Vote.Gender",
              "name": "gender",
              "type": "uint8"
            },
            {
              "internalType": "uint256",
              "name": "voteCandidateId",
              "type": "uint256"
            },
            {
              "internalType": "address",
              "name": "voterAddress",
              "type": "address"
            }
          ],
          "internalType": "struct Vote.Voter[]",
          "name": "",
          "type": "tuple[]"
        }
      ],
      "payable": false,
      "stateMutability": "view",
      "type": "function"
    },
    {
      "constant": false,
      "inputs": [
        {
          "internalType": "uint256",
          "name": "_voterId",
          "type": "uint256"
        },
        {
          "internalType": "uint256",
          "name": "_id",
          "type": "uint256"
        }
      ],
      "name": "castVote",
      "outputs": [],
      "payable": false,
      "stateMutability": "nonpayable",
      "type": "function"
    },
    {
      "constant": false,
      "inputs": [
        {
          "internalType": "uint256",
          "name": "_startTime",
          "type": "uint256"
        },
        {
          "internalType": "uint256",
          "name": "_endTime",
          "type": "uint256"
        }
      ],
      "name": "setVotingPeriod",
      "outputs": [],
      "payable": false,
      "stateMutability": "nonpayable",
      "type": "function"
    },
    {
      "constant": true,
      "inputs": [],
      "name": "getVotingStatus",
      "outputs": [
        {
          "internalType": "enum Vote.VotingStatus",
          "name": "",
          "type": "uint8"
        }
      ],
      "payable": false,
      "stateMutability": "view",
      "type": "function"
    },
    {
      "constant": false,
      "inputs": [],
      "name": "announceVotingResult",
      "outputs": [],
      "payable": false,
      "stateMutability": "nonpayable",
      "type": "function"
    },
    {
      "constant": false,
      "inputs": [],
      "name": "emergencyStopVoting",
      "outputs": [],
      "payable": false,
      "stateMutability": "nonpayable",
      "type": "function"
    }
  ],
  "bytecode": "0x60806040526001600255600160035534801561001a57600080fd5b506108bd8061002a6000396000f3fe608060405234801561001057600080fd5b506004361061009e5760003560e01c80639fa4e440116100665780639fa4e4401461011f578063a15a36c714610129578063b28d92ae14610145578063dfbf53ae14610163578063fdbc4006146101815761009e565b80632c0a3f89146100a3578063581c281c146100bf5780636ce2ccc0146100dd57806381ba732f146100e7578063982c777d14610103575b600080fd5b6100bd60048036036100b89190810190610369565b61019f565b005b6100c76101a3565b6040516100d491906106c6565b60405180910390f35b6100e56101a8565b005b61010160048036036100fc91908101906102fd565b6101aa565b005b61011d60048036036101189190810190610262565b6101b0565b005b6101276101b8565b005b610143600480360361013e9190810190610369565b6101ba565b005b61014d6101be565b60405161015a91906106a4565b60405180910390f35b61016b6101c3565b6040516101789190610667565b60405180910390f35b6101896101e9565b6040516101969190610682565b60405180910390f35b5050565b600090565b565b50505050565b505050505050565b565b5050565b606090565b600160009054906101000a900473ffffffffffffffffffffffffffffffffffffffff1681565b606090565b6000813590506101fd81610853565b92915050565b60008083601f84011261021557600080fd5b8235905067ffffffffffffffff81111561022e57600080fd5b60208301915083600182028301111561024657600080fd5b9250929050565b60008135905061025c81610863565b92915050565b6000806000806000806080878903121561027b57600080fd5b600087013567ffffffffffffffff81111561029557600080fd5b6102a189828a01610203565b9650965050602087013567ffffffffffffffff8111156102c057600080fd5b6102cc89828a01610203565b945094505060406102df89828a0161024d565b92505060606102f089828a016101ee565b9150509295509295509295565b6000806000806060858703121561031357600080fd5b600085013567ffffffffffffffff81111561032d57600080fd5b61033987828801610203565b9450945050602061034c8782880161024d565b925050604061035d878288016101ee565b91505092959194509250565b6000806040838503121561037c57600080fd5b600061038a8582860161024d565b925050602061039b8582860161024d565b9150509250929050565b60006103b1838361052c565b905092915050565b60006103c583836105cf565b905092915050565b6103d68161076f565b82525050565b6103e58161076f565b82525050565b60006103f682610701565b610400818561073c565b935083602082028501610412856106e1565b8060005b8581101561044e578484038952815161042f85826103a5565b945061043a83610722565b925060208a01995050600181019050610416565b50829750879550505050505092915050565b600061046b8261070c565b610475818561074d565b935083602082028501610487856106f1565b8060005b858110156104c357848403895281516104a485826103b9565b94506104af8361072f565b925060208a0199505060018101905061048b565b50829750879550505050505092915050565b6104de816107d1565b82525050565b6104ed816107e3565b82525050565b60006104fe82610717565b610508818561075e565b93506105188185602086016107f5565b61052181610828565b840191505092915050565b600060e083016000830151848203600086015261054982826104f3565b9150506020830151848203602086015261056382826104f3565b91505060408301516105786040860182610658565b50606083015161058b60608601826104d5565b50608083015161059e6080860182610658565b5060a08301516105b160a08601826103cd565b5060c08301516105c460c0860182610658565b508091505092915050565b600060c08301600083015184820360008601526105ec82826104f3565b91505060208301516106016020860182610658565b5060408301516106146040860182610658565b50606083015161062760608601826104d5565b50608083015161063a6080860182610658565b5060a083015161064d60a08601826103cd565b508091505092915050565b610661816107c7565b82525050565b600060208201905061067c60008301846103dc565b92915050565b6000602082019050818103600083015261069c81846103eb565b905092915050565b600060208201905081810360008301526106be8184610460565b905092915050565b60006020820190506106db60008301846104e4565b92915050565b6000819050602082019050919050565b6000819050602082019050919050565b600081519050919050565b600081519050919050565b600081519050919050565b6000602082019050919050565b6000602082019050919050565b600082825260208201905092915050565b600082825260208201905092915050565b600082825260208201905092915050565b600061077a826107a7565b9050919050565b600081905061078f82610839565b919050565b60008190506107a282610846565b919050565b600073ffffffffffffffffffffffffffffffffffffffff82169050919050565b6000819050919050565b60006107dc82610781565b9050919050565b60006107ee82610794565b9050919050565b60005b838110156108135780820151818401526020810190506107f8565b83811115610822576000848401525b50505050565b6000601f19601f8301169050919050565b6004811061084357fe5b50565b6003811061085057fe5b50565b6004811061086057600080fd5b50565b61086c816107c7565b811461087757600080fd5b5056fea365627a7a723158209ea3673476603b436105156546f6875cb7bf64e0f751f4f07b972a27dce6b44a6c6578706572696d656e74616cf564736f6c63430005100040",
  "source": "// SPDX-License-Identifier: GPL-3.0\npragma solidity >=0.4.22 <0.9.0;\npragma experimental ABIEncoderV2;\n\ncontract Vote {\n    struct Voter {\n        string name;\n        uint age;\n        uint voterId;\n        Gender gender;\n        uint voteCandidateId;\n        address voterAddress;\n    }\n\n    struct Candidate {\n        string name;\n        string party;\n        uint age;\n        Gender gender;\n        uint candidateId;\n        address candidateAddress;\n        uint votes;\n    }\n\n    address electionCommission;\n    address public winner;\n    uint nextVoterId = 1;\n    uint nextCandidateId = 1;\n    uint startTime;\n    uint endTime;\n    bool stopVoting;\n\n    mapping(uint => Voter) voterDetails;\n    mapping(uint => Candidate) candidateDetails;\n\n    enum VotingStatus {\n        NotStarted,\n        InProgress,\n        Ended\n    }\n    enum Gender {\n        NotSpecified,\n        Male,\n        Female,\n        Other\n    }\n\n    constructor() public {}\n\n    modifier isVotingOver() {\n        _;\n    }\n\n    modifier onlyCommissioner() {\n        _;\n    }\n\n    function registerCandidate(\n        string calldata _name,\n        string calldata _party,\n        uint _age,\n        Gender _gender\n    ) external {}\n\n    function isCandidateNotRegistered(\n        address _person\n    ) internal view returns (bool) {}\n\n    function getCandidateList() public view returns (Candidate[] memory) {}\n\n    function isVoterNotRegistered(\n        address _person\n    ) internal view returns (bool) {}\n\n    function registerVoter(\n        string calldata _name,\n        uint _age,\n        Gender _gender\n    ) external {}\n\n    function getVoterList() public view returns (Voter[] memory) {}\n\n    function castVote(uint _voterId, uint _id) external {}\n\n    function setVotingPeriod(\n        uint _startTime,\n        uint _endTime\n    ) external onlyCommissioner {}\n\n    function getVotingStatus() public view returns (VotingStatus) {}\n\n    function announceVotingResult() external onlyCommissioner {}\n\n    function emergencyStopVoting() public onlyCommissioner {}\n}\n",
  "sourcePath": "/home/brainx/Desktop/Projects/Blockchain/voting/contracts/Ballot.sol",
  "compiler": {
    "name": "solc",
    "version": "0.5.16+commit.9c3226ce.Emscripten.clang"
  },
  "schemaVersion": "3.4.16",
  "updatedAt": "2024-08-14T12:27:19.742Z",
  "devdoc": {
    "methods": {}
  },
  "userdoc": {
    "methods": {}
  }
}